S0150000547261666669634C69676874732E73726563E5
S11300000C942A000C9428010C943C000C943C00A1
S11300100C943C000C943C000C943C000C943C006C
S11300200C943C000C943C000C943C000C943C005C
S11300300C943C000C943C000C943C000C943C004C
S11300400C943C000C943C000C943C000C943C003C
S11300500C943C0011241FBECFE5D8E0DEBFCDBF19
S113006020E0A0E6B0E001C01D92A137B207E1F79D
S11300700E9486010C9477090C94000062E084E4E9
S11300800E94370160E081E40E94470161E081E45D
S11300900E94470162E081E40E94470160E082E43B
S11300A00E94470161E082E40E94470162E082E429
S11300B00E94470182E00E94F20260E080E00E9418
S11300C0100360E082E40E9457010895809160006B
S11300D0882321F0813009F44FC0F8CF809161006A
S11300E0811113C01092620081E08093610060E08E
S11300F081E40E94570168E873E180E00E9469038B
S113010060E081E40E946701E1CF813001F58091D4
S11301106200823019F41092610005C0811103C09D
S113012082E08093610081E080936200C0E0D0E0CF
S11301300AC061E081E40E94770164EF71E080E02D
S11301400E9469032196C431D1059CF3BFCF82304C
S113015099F48093620081E08093610062E081E41D
S11301600E94570168E873E180E00E94690362E03D
S113017081E40E946701AACF80916200811112C0BC
S113018060E081E40E94570160E082E40E9467011C
S113019062E082E40E94570168E873E180E00E9413
S11301A069032CC08150823048F560E082E40E94EB
S11301B05701C0E0D0E00EC061E081E40E94770105
S11301C061E082E40E94770164EF71E080E00E94C4
S11301D069032196C431D1057CF360E082E40E9476
S11301E0670162E082E40E94570160E081E40E94BA
S11301F0570168E873E180E00E94690360E081E4EC
S11302000E946701C0E0D0E00EC061E081E40E947A
S1130210770161E082E40E94770164EF71E080E09D
S11302200E9469032196C431D1057CF362E082E423
S11302300E94670160E082E40E94570162E081E469
S11302400E94570182E080936100109260003ECFCB
S11302501F920F920FB60F9211248F9381E0809317
S113026060008F910F900FBE0F901F90189540E083
S11302700E948D01813039F018F0823031F002C0D3
S113028080E00895089581E0089582E0089541E0B2
S11302900E948D01813039F018F0823031F002C0B3
S11302A080E00895089581E0089582E0089541E092
S11302B00E941F02813039F018F0823031F002C000
S11302C080E00895089581E0089582E0089540E073
S11302D00E941F02813039F018F0823031F002C0E0
S11302E080E00895089581E0089582E008950E94D1
S11302F0B102813039F018F0823031F002C080E070
S11303000895089581E0089582E008950E943E00D2
S11303100E94660080E090E00895683008F083C091
S1130320823449F118F4813441F07FC0833409F4F4
S113033040C0843409F45AC078C041110DC02AB3B6
S113034081E090E002C0880F991F6A95E2F78095DA
S113035082238ABB80E00895413009F068C02AB343
S113036081E090E002C0880F991F6A95E2F7822B22
S11303708ABB80E0089541110DC027B381E090E06D
S113038002C0880F991F6A95E2F78095822387BB84
S113039080E00895413009F04CC027B381E090E03B
S11303A002C0880F991F6A95E2F7822B87BB80E011
S11303B0089541110DC024B381E090E002C0880F7C
S11303C0991F6A95E2F78095822384BB80E00895A3
S11303D0413089F524B381E090E002C0880F991F71
S11303E06A95E2F7822B84BB80E0089541110DC029
S11303F021B381E090E002C0880F991F6A95E2F76B
S11304008095822381BB80E008954130B1F421B30B
S113041081E090E002C0880F991F6A95E2F7822B71
S113042081BB80E0089582E0089581E0089583E02F
S1130430089583E0089583E0089583E00895683083
S113044008F083C0823449F118F4813441F07FC04C
S1130450833409F440C0843409F45AC078C041118B
S11304600DC02BB381E090E002C0880F991F6A95FC
S1130470E2F7809582238BBB80E00895413009F038
S113048068C02BB381E090E002C0880F991F6A9581
S1130490E2F7822B8BBB80E0089541110DC028B395
S11304A081E090E002C0880F991F6A95E2F7809579
S11304B0822388BB80E00895413009F04CC028B302
S11304C081E090E002C0880F991F6A95E2F7822BC1
S11304D088BB80E0089541110DC025B381E090E010
S11304E002C0880F991F6A95E2F78095822385BB25
S11304F080E00895413089F525B381E090E002C0A1
S1130500880F991F6A95E2F7822B85BB80E00895D6
S113051041110DC022B381E090E002C0880F991F01
S11305206A95E2F78095822382BB80E0089541308A
S1130530B1F422B381E090E002C0880F991F6A955C
S1130540E2F7822B82BB80E0089582E0089581E087
S1130550089584E0089584E0089584E0089584E093
S113056008956830D8F58234A9F018F4813431F054
S113057037C08334D9F0843429F132C02BB381E0FD
S113058090E002C0880F991F6A95E2F782278BBB1F
S113059080E0089528B381E090E002C0880F991F9D
S11305A06A95E2F7822788BB80E0089525B381E04D
S11305B090E002C0880F991F6A95E2F7822785BBF5
S11305C080E0089522B381E090E002C0880F991F73
S11305D06A95E2F7822782BB80E0089582E008955D
S11305E081E008957894813031F098F0823039F0C8
S11305F0833049F013C085B7816085BF0AC085B7D1
S1130600826085BF06C085B7816085BF85B782607B
S113061085BF8BB780648BBF80E0089581E0089527
S1130620813009F450C020F0823039F181E008951E
S1130630611107C083B78F7B83BF83B7877F83BF75
S11306401AC0613039F483B78F7B83BF83B7886066
S113065083BF11C0623039F483B7806483BF83B72A
S1130660886083BF08C0633081F583B7806483BF2B
S113067083B7877F83BF12BE0895611107C085B514
S11306808F7B85BD85B5877F85BD1AC0613039F400
S113069085B58F7B85BD85B5886085BD11C0623009
S11306A039F485B5806485BD85B5886085BD08C08D
S11306B0633069F485B5806485BD85B5877F85BD64
S11306C014BC80E0089580E0089582E0089582E0FB
S11306D008958F929F92AF92BF92CF92DF92EF9242
S11306E0FF920F931F9370936400609363000FE66F
S11306F012E123E83AE300936D0010936E00209317
S11307006F00309370000FE612E123E83EE300939C
S1130710690010936A0020936B0030936C00813061
S113072009F412C420F0823009F40AC20FC480E034
S113073090E00E94C5086B017C012FE632E143E89A
S11307405EE30E941F088823ECF4A70196016FE67C
S113075072E183E89EE30E94B2072FE632E143E8A8
S11307605AE30E9424080E94960862BF83B78160FE
S113077083BF08B600FEFDCF88B7816088BF13BE73
S113078080E0E5C32FE632E143E85EE3C701B6014A
S11307900E941F0881110DC012BE83B7816083BF00
S11307A008B600FEFDCF88B7816088BF13BE80E025
S11307B0CEC32FE632E143E85EE3C701B6010E94EF
S11307C024084B015C010E9496089B017093680009
S11307D060936700AB01485051094833510508F054
S11307E06BC08FE692E1A3E0BCE380936D0090932D
S11307F06E00A0936F00B09370008FE692E1A3E0C7
S1130800B0E48093690090936A00A0936B00B09366
S11308106C009C01AD01C701B6010E9424080E942E
S113082096084B015C0170936800609367002FE6A3
S113083032E143E05CE3C701B6010E9424086B0186
S11308407C01B40180E090E00E94C5089B01AC01EA
S1130850C701B6010E9424089B01AC0160E070E06E
S113086080E893E40E94B2070E94960862BF83B7AF
S1130870826083BF0FC008B600FEFDCF88B78160D9
S113088088BF809165009091660001969093660000
S11308908093650020916500309166008091670027
S11308A0909168002817390730F31092660010926F
S11308B0650013BE80E04BC3AB0140545109403C7A
S11308C0510508F06BC08FE692E1A3E8BDE3809385
S11308D06D0090936E00A0936F00B09370008FE64C
S11308E092E1A3E8B1E48093690090936A00A09335
S11308F06B00B0936C009C01AD01C701B6010E946E
S113090024080E9496084B015C0170936800609370
S113091067002FE632E143E85DE3C701B6010E94B8
S113092024086B017C01B40180E090E00E94C508BA
S11309309B01AC01C701B6010E9424089B01AC01D4
S113094060E070E080E893E40E94B2070E94960899
S113095062BF83B7836083BF0FC008B600FEFDCFBC
S113096088B7816088BF8091650090916600019688
S11309709093660080936500209165003091660035
S113098080916700909168002817390730F310921E
S113099066001092650013BE80E0D9C27A95611595
S11309A0734008F05EC08FE692E1A3E8BEE3809353
S11309B06D0090936E00A0936F00B09370008FE66B
S11309C092E1A3E8B2E48093690090936A00A09353
S11309D06B00B0936C009C01AD01C701B6010E948D
S11309E024080E949608709368006093670080E072
S11309F090E00E94C5089B01AC01C501B4010E94AE
S1130A0024089B01AC0160E070E080E893E40E945C
S1130A10B2070E94960862BF83B7846083BF0FC089
S1130A2008B600FEFDCF88B7816088BF809165005D
S1130A3090916600019690936600809365002091E2
S1130A4065003091660080916700909168002817D6
S1130A50390730F3109266001092650013BE80E0EF
S1130A6076C22115344008F46EC28FE692E1A3E801
S1130A70BFE380936D0090936E00A0936F00B093DA
S1130A8070008FE692E1A3E8B3E480936900909349
S1130A906A00A0936B00B0936C009C01AD01C70188
S1130AA0B6010E9424080E9496084B015C017093D1
S1130AB06800609367002FE632E143E85FE3C70113
S1130AC0B6010E9424086B017C01B40180E090E02F
S1130AD00E94C5089B01AC01C701B6010E9424080D
S1130AE09B01AC0160E070E080E893E40E94B207EF
S1130AF00E94960862BF83B7856083BF0FC008B6A3
S1130B0000FEFDCF88B7816088BF80916500909119
S1130B1066000196909366008093650020916500BD
S1130B20309166008091670090916800281739071A
S1130B3030F3109266001092650013BE80E007C285
S1130B4080E090E00E94C5086B017C012FE632E151
S1130B5043E85EE30E941F088823ECF4A701960192
S1130B606FE672E183E89EE30E94B2072FE632E16A
S1130B7043E85AE30E9424080E94960864BD85B5A0
S1130B80816085BD08B606FEFDCF88B7806488BF46
S1130B9015BC80E0DCC12FE632E143E85EE3C70127
S1130BA0B6010E941F0881110DC014BC85B5816077
S1130BB085BD08B606FEFDCF88B7806488BF15BC26
S1130BC080E0C5C12FE632E143E85EE3C701B60128
S1130BD00E9424084B015C010E9496089B017093BB
S1130BE06800609367006830710508F46BC08FE695
S1130BF092E1A3E0BCE380936D0090936E00A09318
S1130C006F00B09370008FE692E1A3E0B0E48093AC
S1130C10690090936A00A0936B00B0936C009C01F0
S1130C20AD01C701B6010E9424080E9496084B0139
S1130C305C0170936800609367002FE632E143E043
S1130C405CE3C701B6010E9424086B017C01B40176
S1130C5080E090E00E94C5089B01AC01C701B60189
S1130C600E9424089B01AC0160E070E080E893E4FA
S1130C700E94B2070E94960864BD85B5826085BD56
S1130C800FC008B606FEFDCF88B7806488BF809188
S1130C9065009091660001969093660080936500CC
S1130CA02091650030916600809167009091680002
S1130CB02817390730F3109266001092650015BCAE
S1130CC080E045C16034710508F46BC08FE692E1A1
S1130CD0A3E8BDE380936D0090936E00A0936F0032
S1130CE0B09370008FE692E1A3E8B1E480936900C9
S1130CF090936A00A0936B00B0936C009C01AD01CB
S1130D00C701B6010E9424080E9496084B015C01A9
S1130D1070936800609367002FE632E143E85DE377
S1130D20C701B6010E9424086B017C01B40180E074
S1130D3090E00E94C5089B01AC01C701B6010E9466
S1130D4024089B01AC0160E070E080E893E40E9419
S1130D50B2070E94960864BD85B5836085BD0FC047
S1130D6008B606FEFDCF88B7806488BF8091650011
S1130D70909166000196909366008093650020919F
S1130D806500309166008091670090916800281793
S1130D90390730F3109266001092650015BC80E0AC
S1130DA0D6C06F3F710509F008F45EC08FE692E18A
S1130DB0A3E8BEE380936D0090936E00A0936F0050
S1130DC0B09370008FE692E1A3E8B2E480936900E7
S1130DD090936A00A0936B00B0936C009C01AD01EA
S1130DE0C701B6010E9424080E9496087093680007
S1130DF06093670080E090E00E94C5089B01AC010D
S1130E00C501B4010E9424089B01AC0160E070E0BC
S1130E1080E893E40E94B2070E94960864BD85B5F9
S1130E20846085BD0FC008B606FEFDCF88B7806418
S1130E3088BF80916500909166000196909366004A
S1130E408093650020916500309166008091670071
S1130E50909168002817390730F3109266001092B9
S1130E60650015BC80E073C02115344008F46BC0E4
S1130E708FE692E1A3E0BCE380936D0090936E0053
S1130E80A0936F00B09370008FE692E1A3E0B0E40A
S1130E908093690090936A00A0936B00B0936C00F8
S1130EA09C01AD01C701B6010E9424080E94960866
S1130EB04B015C0170936800609367002FE632E198
S1130EC043E05CE3C701B6010E9424086B017C0186
S1130ED0B40180E090E00E94C5089B01AC01C70109
S1130EE0B6010E9424089B01AC0160E070E080E838
S1130EF093E40E94B2070E94960864BD85B585609C
S1130F0085BD0FC008B606FEFDCF88B7806488BFD4
S1130F10809165009091660001969093660080939D
S1130F206500209165003091660080916700909182
S1130F3068002817390730F3109266001092650094
S1130F4015BC80E004C003C080E001C081E01F91B3
S1130F500F91FF90EF90DF90CF90BF90AF909F9054
S1130F608F9008955058BB27AA270E94CA070C9453
S1130F703D090E942F0938F00E94360920F039F407
S1130F809F3F19F426F40C942C090EF4E095E7FB2A
S1130F900C942609E92F0E944E0958F3BA176207E8
S1130FA073078407950720F079F4A6F50C9470096B
S1130FB00EF4E0950B2EBA2FA02D0B01B901900170
S1130FC00C01CA01A0011124FF27591B99F0593FB4
S1130FD050F4503E68F11A16F040A22F232F342FFC
S1130FE04427585FF3CF469537952795A795F0404A
S1130FF05395C9F77EF41F16BA0B620B730B840B5F
S1131000BAF09150A1F0FF0FBB1F661F771F881F16
S1131010C2F70EC0BA0F621F731F841F48F487956E
S113102077956795B795F7959E3F08F0B0CF939560
S1131030880F08F09927EE0F9795879508950E94D9
S1131040020908F481E008950E9438080C943D09CF
S11310500E94360958F00E942F0940F029F45F3F9E
S113106029F00C94260951110C9471090C942C0943
S11310700E944E0968F39923B1F3552391F3951B0C
S1131080550BBB27AA2762177307840738F09F5FA5
S11310905F4F220F331F441FAA1FA9F335D00E2E12
S11310A03AF0E0E832D091505040E695001CCAF77F
S11310B02BD0FE2F29D0660F771F881FBB1F261742
S11310C037074807AB07B0E809F0BB0B802DBF0119
S11310D0FF2793585F4F3AF09E3F510578F00C94E8
S11310E026090C9471095F3FE4F3983ED4F3869586
S11310F077956795B795F7959F5FC9F7880F911D09
S11311009695879597F90895E1E0660F771F881FF4
S1131110BB1F621773078407BA0720F0621B730BA7
S1131120840BBA0BEE1F88F7E09508950E945609C8
S113113088F09F5798F0B92F9927B751B0F0E1F094
S1131140660F771F881F991F1AF0BA95C9F714C044
S1131150B13091F00E947009B1E008950C947009C7
S1131160672F782F8827B85F39F0B93FCCF386957D
S113117077956795B395D9F73EF4909580957095DA
S113118061957F4F8F4F9F4F0895E89409C097FB57
S11311903EF490958095709561957F4F8F4F9F4F4A
S11311A09923A9F0F92F96E9BB279395F69587958E
S11311B077956795B795F111F8CFFAF4BB0F11F451
S11311C060FF1BC06F5F7F4F8F4F9F4F16C08823F8
S11311D011F096E911C0772321F09EE8872F762F2E
S11311E005C0662371F096E8862F70E060E02AF06F
S11311F09A95660F771F881FDAF7880F969587955B
S113120097F90895990F0008550FAA0BE0E8FEEF2F
S113121016161706E807F907C0F012161306E407B6
S1131220F50798F0621B730B840B950B39F40A26AF
S113123061F0232B242B252B21F408950A2609F48D
S1131240A140A6958FEF811D811D089597F99F6791
S113125080E870E060E008959FEF80EC089500243A
S11312600A941616170618060906089500240A9407
S113127012161306140605060895092E0394000C8D
S113128011F4882352F0BB0F40F4BF2B11F460FF1C
S113129004C06F5F7F4F8F4F9F4F089557FD905845
S11312A0440F551F59F05F3F71F04795880F97FB26
S11312B0991F61F09F3F79F08795089512161306E0
S11312C01406551FF2CF4695F1DF08C0161617060F
S11312D01806991FF1CF8695710561050894089544
S11312E0E894BB2766277727CB0197F90895F894EC
S10512F0FFCF2A
S9030000FC
